:100AE500446F6F72206973204C6F636B65640045BA
:100AF5006E7465722050617373776F72643A00503B
:100B0500617373776F7264204D6174636865640007
:100B150057726F6E672050617373776F7264005000
:100B25006C656173652054727920416761696E0057
:100B350050686F6E6520546170204D617463680064
:100B450057726F6E672050686F6E65205461700034
:100B550054415020796F757220446576696365004C
:100B65004F70656E696E6720446F6F722E2E2E0072
:100B7500436C6F73696E6720446F6F722E2E2E0063
:080EAF00060E35343332310028
:1009E100E4F51BF51C120E98E4F5A07590FF120EAC
:1009F100207BFF7A0A79E5120D517F647E00120D8A
:100A0100847F01120E4B7F02120E4B7BFF7A0A7913
:100A1100F4120D517FC0120E4BE4F519F51A120EA6
:100A2100A48F1D7414251AF8A61D7F647E00120D73
:100A310084051AE51A70020519C39405E519648045
:100A4100948040DA7F01120E4B7F02120E4B780E1A
:100A51007C007D007B007A0079141209C4EF339584
:100A6100E04F7BFF701D7A0B7904120D517FC87E18
:100A710000120D84120E877F587E02120D84120D12
:100A8100D580567A0B7915120D51120E5D7FC87EF5
:100A910000120D847F01120E4B7F02120E4B120DBC
:100AA1004B7FB07E04120D847F01120E4B7F021228
:100AB1000E4B7BFF7A0B7935120D517FC87E0012E8
:100AC1000D84120E877F587E02120D84120DD57F80
:100AD10001120E4B7F02120E4B7F01120E4B7F0251
:030AE100120E4BA7
:010AE40022EF
:100B8500E5096431701AE50A64417014E50B6433B4
:100B9500700EE50C64347008E50D64367002801E35
:100BA500E50964337037E50A64327031E50B643466
:100BB500702BE50C64357025E50D6446701F7BFFD1
:100BC5007A0B7935120D517FC87E00120D84120EF5
:100BD500877F587E02120D84120DD580357BFF7AF2
:100BE5000B7945120D51120E5D7FC87E00120D84E2
:100BF5007F01120E4B7F02120E4B120D4B7BFF7ABB
:100C05000B7955120DFB7F0D120EB87FE87E03128E
:0D0C15000D847F01120E4B7F02120E4B2248
:100E20007F38120E4B120D807F01120E4B120D8077
:100E30007F80120E4B120D807F0E120E4B7F027EB2
:040E400000020D841B
:090D7B007F2A120E757F027E0032
:100D8400E4FDFCC3ED9FEE6480F8EC64809850159C
:100D9400E4FBFA0BBB00010ABA04F8BBFBF50DBD7A
:050DA40000010C80DEDF
:010DA9002227
:070E44007F01120E4B7F023B
:100E4B008FA0C2B4C2B5D2B67F017E00120D84C290
:020E5B00B622BD
:060D4B007BFF7A0B792406
:100D51008B1E8A1F8920AB1EAA1FA920120800FF23
:100D61006017120E757F0A7E00120D847401252012
:0A0D7100F520E4351FF51F80DD2298
:100E75008FA0D2B4C2B5D2B67F017E00120D84C256
:020E8500B62293
:100E5D00900000D2977F647E00120D84C297A3E5A7
:070E6D00826405458370EC6F
:010E7400225B
:100E8700120E447BFF7A0B7965120D51D2B2C2B3B1
:010E97002238
:100DD500120E447BFF7A0B7975120D51C2B2C2B364
:100DE5007F147E00120D84C2B2D2B37FF40E120DB1
:060DF50084C2B2C2B32269
:0A0EA4007F61BF6105120C2280F887
:010EAE002221
:100C2200D296D295D294C293C292C291C290C290ED
:100C3200D293D292D291209406120D7B7F31222040
:100C42009506120D7B7F3222209606120D7B7F3392
:100C520022C291D293D292D290209406120D7B7F1F
:100C62003422209506120D7B7F3522209606120D26
:100C72007B7F3622C292D293D291D29020940612D6
:100C82000D7B7F3722209506120D7B7F382220961E
:100C920006120D7B7F3922C293D292D291D290203A
:100CA2009406120D7B7F2A22209506120D7B7F303F
:0D0CB20022209606120D7B7F23227F6122F7
:0C0E9800759850758920758DFDD28E2252
:060DAA008B218A2289233F
:100DB000E4FFAB21AA22A9238F82758300120819B0
:100DC000600AF5993099FDC2990F80E675990D304A
:040DD00099FDC2992E
:010DD40022FC
:100DFB008B248A258926AB24AA25A92612080060F4
:100E0B00130526E5267002052514F9120800FF12BA
:050E1B000EB880E22288
:080EB8008F993099FDC29922C7
:03000000020CBF30
:0C0CBF00787FE4F6D8FD758126020D0652
:10080000BB010689828A83E0225002E722BBFE02F6
:09081000E32289828A83E4932229
:10081900BB010CE58229F582E5833AF583E0225094
:1008290006E92582F8E622BBFE06E92582F8E222DE
:0D083900E58229F582E5833AF583E49322F8
:10084600E3F5F009E208B5F06D606B80F3E3F5F0CF
:1008560009E608B5F060605E80F387F009E608B542
:10086600F054605280F487F009E208B5F04860461B
:1008760080F488828C8387F009E0A3B5F03860366F
:1008860080F488828C8387F009E493A3B5F027600F
:100896002580F388828C83E3F5F009E0A3B5F01692
:1008A600601480F388828C83E3F5F009E493A3B5A2
:1008B600F004600280F2020971808580E7808E80F4
:1008C600D2803C8015806C807E809B80B5808B803A
:1008D600A1804F8070803A02097D89828A83ECFA72
:1008E600E493F5F0A3C8C582C8CCC583CCE493A332
:1008F600C8C582C8CCC583CCB5F070606E80E1896E
:10090600828A83E493F5F0A3E208B5F05E605C802A
:10091600F289828A83E0F5F0A3E608B5F04D604BD4
:1009260080F389828A83E0F5F0A3E208B5F03C60A3
:100936003A80F389828A83E493F5F0A3E608B5F05A
:100946002A602880F2805389828A83ECFAE493F540
:10095600F0A3C8C582C8CCC583CCE0A3C8C582C8ED
:10096600CCC583CCB5F004600280E27FFFB5F0020F
:100976000F2240027F012289828A83ECFAE0F5F099
:10098600A3C8C582C8CCC583CCE0A3C8C582C8CCE1
:10099600C583CCB5F0D560D380E389828A83ECFA2F
:1009A600E0F5F0A3C8C582C8CCC583CCE493A3C840
:1009B600C582C8CCC583CCB5F0B160AF80E288F003
:1009C600ED2402B4040050A3F582EB2402B4040023
:0B09D600509923234582239008BF7333
:100CCB000209E1E493A3F8E493A34003F68001F255
:100CDB0008DFF48029E493A3F85407240CC8C3332A
:100CEB00C4540F4420C8834004F456800146F6DFF9
:100CFB00E4800B0102040810204080900EAFE47ECC
:100D0B00019360BCA3FF543F30E509541FFEE493ED
:100D1B00A360010ECF54C025E060A840B8E493A3B4
:100D2B00FAE493A3F8E493A3C8C582C8CAC583CADF
:100D3B00F0A3C8C582C8CAC583CADFE9DEE780BE97
:010EB700003A
:00000001FF
